:100000000C942A000C9404100C9437100C946A1071
:100010000C9447000C9447000C9447000C94470044
:100020000C9447000C9447000C94790B0C944C0BE7
:100030000C9447000C9447000C9447000C94470024
:100040000C946F190C9447000C9447000C944700D3
:100050000C94470011241FBECFE5D8E0DEBFCDBF12
:1000600010E0A0E6B0E0E6E4F8E502C005900D92ED
:10007000A03EB107D9F710E0A0EEB0E001C01D929C
:10008000AA3FB107E1F70E940E290C94212C0C9491
:100090000000EF92FF920F931F937B018C0120E0F1
:1000A00030E040E05FE40E94F50388238CF0C80153
:1000B000B70120E030E040E05FE40E94C1010E940F
:1000C00055049B01AC01205030404040504806C0D0
:1000D000C801B7010E9455049B01AC01B901CA01D6
:1000E0001F910F91FF90EF900895A0E0B0E0EBE733
:1000F000F0E00C944229DC012B01FA019C91923032
:1001000008F439C1EB018881823008F433C194309E
:1001100069F4843009F02FC111969C91119789815F
:10012000981709F428C1A4E6B0E025C1843009F489
:1001300021C18230A9F4923009F01DC19A01AD01AC
:1001400088E0EA010990AE01E90109929E0181501F
:10015000C1F7E201898111969C918923818308C1AD
:10016000923009F407C112962D903C901397EB0141
:100170008A819B811496AD90BD90CD90DC901797AD
:10018000EC80FD800E811F819101281B390BB90184
:1001900037FF04C066277727621B730B6032710537
:1001A0000CF061C0121613066CF537014801062EDB
:1001B00004C096948794779467940A94D2F721E0C8
:1001C00030E040E050E004C0220F331F441F551FB1
:1001D0006A95D2F721503040404050402E213F21B7
:1001E00040235123211531054105510521F021E01E
:1001F00030E040E050E079018A01E628F72808293C
:1002000019293CC0232BD1F1260E371E350146019A
:10021000062E04C096948794779467940A94D2F734
:1002200021E030E040E050E004C0220F331F441FC3
:10023000551F6A95D2F721503040404050402A2146
:100240003B214C215D21211531054105510521F04E
:1002500021E030E040E050E059016A01A628B728CB
:10026000C828D9280BC0821593052CF01C01AA249C
:10027000BB24650103C0EE24FF24870111969C91E5
:10028000D20111968C91981709F445C0992339F041
:10029000A80197012A193B094C095D0906C0A6016E
:1002A00095012E193F09400B510B57FD08C01182D3
:1002B0003382228224833583468357831DC081E0A5
:1002C00081833382228288279927DC01821B930B4A
:1002D000A40BB50B84839583A683B7830DC0220F2F
:1002E000331F441F551F24833583468357838281E0
:1002F000938101979383828324813581468157813D
:10030000DA01C9010197A109B1098F5F9F4FAF4F72
:10031000BF4328F30BC0918333822282EA0CFB1C7B
:100320000C1D1D1DE482F5820683178383E0808304
:10033000248135814681578157FF1AC0C901AA27F8
:1003400097FDA095BA2F81709070A070B0705695EF
:10035000479537952795822B932BA42BB52B848318
:100360009583A683B7838281938101969383828349
:10037000DF0101C0D201CD01CDB7DEB7E2E10C94BF
:100380005E29A0E2B0E0E7ECF1E00C944E2969832D
:100390007A838B839C832D833E834F835887E9E048
:1003A000EE2EF12CEC0EFD1ECE010196B7010E943F
:1003B0007E058E010F5E1F4FCE010596B8010E948B
:1003C0007E058A8991E089278A8BC701B801AE0131
:1003D000475E5F4F0E9475000E94A904A096E6E068
:1003E0000C946A29A0E2B0E0E8EFF1E00C944E2909
:1003F00069837A838B839C832D833E834F835887C5
:10040000F9E0EF2EF12CEC0EFD1ECE010196B701A6
:100410000E947E058E010F5E1F4FCE010596B8012A
:100420000E947E05C701B801AE01475E5F4F0E9482
:1004300075000E94A904A096E6E00C946A29A0E247
:10044000B0E0E5E2F2E00C94422969837A838B8381
:100450009C832D833E834F835887CE010196BE0136
:10046000675F7F4F0E947E05CE010596BE016F5EDD
:100470007F4F0E947E059985923088F0898982306D
:10048000C8F0943019F4823051F404C0843029F457
:10049000923081F484E690E0C6C0923049F420E0C6
:1004A0009A858A89981321E02A87CE010996BBC0D4
:1004B000823049F420E09A858A89981321E02A8BBA
:1004C000CE014196B0C02D843E844F8458886D88FB
:1004D0007E888F88988CEE24FF248701AA24BB2471
:1004E000650140E050E060E070E0E0E0F0E0C10174
:1004F00081709070892BE9F0E60CF71C081D191D1E
:100500009A01AB012A0D3B1D4C1D5D1D80E090E062
:10051000A0E0B0E0E614F7040805190520F481E036
:1005200090E0A0E0B0E0BA01A901480F591F6A1F8E
:100530007B1FAA0CBB1CCC1CDD1C97FE08C081E0F5
:1005400090E0A0E0B0E0A82AB92ACA2ADB2A3196B6
:10055000E032F10549F0660C771C881C991C569412
:10056000479437942794C3CFFA85EA892B893C892D
:100570008B859C85280F391F2E5F3F4F17C0CA01FE
:1005800081709070892B61F016950795F794E79428
:1005900080E090E0A0E0B0E8E82AF92A0A2B1B2BC3
:1005A00076956795579547952F5F3F4F77FDE7CF36
:1005B0000CC0440F551F661F771F17FD4160EE0CDE
:1005C000FF1C001F111F21503040403090E05907A0
:1005D00090E0690790E4790760F32B8F3C8FDB0193
:1005E000CA018F779070A070B07080349105A1051A
:1005F000B10561F447FD0AC0E114F10401051105DC
:1006000029F0405C5F4F6F4F7F4F40781A8EFE1786
:1006100011F081E08A8F4D8F5E8F6F8F78A383E01A
:10062000898FCE0149960E94A904A096E2E10C941C
:100630005E29A8E1B0E0EFE1F3E00C944A29698378
:100640007A838B839C832D833E834F835887B9E0C5
:10065000EB2EF12CEC0EFD1ECE010196B7010E948F
:100660007E058E010F5E1F4FCE010596B8010E94D8
:100670007E052985223008F47EC03989323010F495
:10068000B8017CC08A859A8989278A87243011F02D
:10069000223031F4231709F06EC064E670E06EC0BA
:1006A000343039F41D861E861F86188A1C861B86E8
:1006B00004C0323021F484E08987B7015FC02B8504
:1006C0003C858B899C89281B390B3C872B87ED84C3
:1006D000FE840F851889AD88BE88CF88D88CEA142F
:1006E000FB040C051D0540F4EE0CFF1C001F111F40
:1006F000215030403C872B8720E030E040E050E044
:1007000080E090E0A0E0B0E460E070E0EA14FB0478
:100710000C051D0540F0282B392B4A2B5B2BEA18C2
:10072000FB080C091D09B695A79597958795EE0CC2
:10073000FF1C001F111F6F5F7F4F6F31710531F775
:10074000DA01C9018F779070A070B0708034910584
:10075000A105B10561F427FD0AC0E114F10401050A
:10076000110529F0205C3F4F4F4F5F4F20782D87B8
:100770003E874F87588BBE01675F7F4FCB010E943A
:10078000A9046896EAE00C946629A8E1B0E0EBECD5
:10079000F3E00C944E2969837A838B839C832D83A9
:1007A0003E834F83588789E0E82EF12CEC0EFD1E26
:1007B000CE010196B7010E947E058E010F5E1F4F8C
:1007C000CE010596B8010E947E058985823040F0F1
:1007D0008989823028F0C701B8010E94F60501C05E
:1007E0008FEF6896E6E00C946A29A8E1B0E0EBEFA1
:1007F000F3E00C944E2969837A838B839C832D8349
:100800003E834F83588789E0E82EF12CEC0EFD1EC5
:10081000CE010196B7010E947E058E010F5E1F4F2B
:10082000CE010596B8010E947E058985823040F090
:100830008989823028F0C701B8010E94F60501C0FD
:100840008FEF6896E6E00C946A29A8E1B0E0EBE24D
:10085000F4E00C944E2969837A838B839C832D83E7
:100860003E834F83588789E0E82EF12CEC0EFD1E65
:10087000CE010196B7010E947E058E010F5E1F4FCB
:10088000CE010596B8010E947E058985823040F030
:100890008989823028F0C701B8010E94F60501C09D
:1008A00081E06896E6E00C946A29ACE0B0E0EBE504
:1008B000F4E00C94522969837A838B839C83CE0164
:1008C0000196BE016B5F7F4F0E947E058D81823055
:1008D00061F1823050F1843021F48E81882351F10E
:1008E0002EC02F81388537FD20C06E812F31310514
:1008F0001CF06623F9F023C08EE190E0821B930B7D
:1009000029853A854B855C8504C056954795379572
:1009100027958A95D2F76623B1F05095409530958A
:1009200021953F4F4F4F5F4F0EC020E030E040E039
:1009300050E009C02FEF3FEF4FEF5FE704C020E02A
:1009400030E040E050E8B901CA012C96E2E00C9496
:100950006E29DF92EF92FF920F931F93FC01E480C8
:10096000F58006811781D1808081823048F480E053
:1009700090E0A0E1B0E0E82AF92A0A2B1B2BA5C0E1
:10098000843009F49FC0823021F4EE24FF248701D3
:1009900005C0E114F1040105110519F4E0E0F0E0EF
:1009A00096C0628173819FEF623879070CF05BC05B
:1009B00022E83FEF261B370B2A3131052CF020E0CF
:1009C00030E040E050E02AC0B801A701022E04C088
:1009D00076956795579547950A94D2F781E090E010
:1009E000A0E0B0E004C0880F991FAA1FBB1F2A9582
:1009F000D2F70197A109B1098E219F21A023B1232C
:100A00000097A105B10521F081E090E0A0E0B0E001
:100A10009A01AB01282B392B4A2B5B2BDA01C90138
:100A20008F779070A070B07080349105A105B105EA
:100A300039F427FF09C0205C3F4F4F4F5F4F04C080
:100A4000215C3F4F4F4F5F4FE0E0F0E02030A0E0EF
:100A50003A07A0E04A07A0E45A0710F0E1E0F0E00E
:100A600079018A0127C06038710564F5FB01E158FE
:100A7000FF4FD801C7018F779070A070B07080349D
:100A80009105A105B10539F4E7FE0DC080E490E0C1
:100A9000A0E0B0E004C08FE390E0A0E0B0E0E80E9A
:100AA000F91E0A1F1B1F17FF05C016950795F7941F
:100AB000E794319687E016950795F794E7948A9521
:100AC000D1F705C0EE24FF248701EFEFF0E06E2F91
:100AD000679566276795902F9F77D794DD24D794E5
:100AE0008E2F8695492F462B582F5D29B701CA01B5
:100AF0001F910F91FF90EF90DF900895FC01DB01B3
:100B0000408151812281622F6F7770E0221F22275E
:100B1000221F9381892F880F822B282F30E0991F65
:100B20009927991F11969C93119721153105A9F5C5
:100B3000411551056105710511F482E037C082E865
:100B40009FEF13969C938E9312979A01AB0167E0E7
:100B5000220F331F441F551F6A95D1F783E08C93F2
:100B60000DC0220F331F441F551F12968D919C916B
:100B70001397019713969C938E931297203080E0E1
:100B8000380780E0480780E4580758F314962D93FF
:100B90003D934D935C93179708952F3F310579F45A
:100BA000411551056105710519F484E08C93089590
:100BB00064FF03C081E08C9312C01C9210C02F57B9
:100BC000304013963C932E93129783E08C9387E0EA
:100BD000440F551F661F771F8A95D1F770641496CE
:100BE0004D935D936D937C93179708951F93DC014C
:100BF000FB019C91923008F447C08081823008F458
:100C000043C0943051F411961C91843099F5818140
:100C1000682F70E0611B71093FC0843021F0923071
:100C200031F48230B9F18181882389F12DC0119688
:100C30001C9111978230F1F081811817D9F4129626
:100C40002D913C911397828193818217930794F0A1
:100C500028173907BCF014968D919D910D90BC9189
:100C6000A02D2481358146815781281739074A07ED
:100C70005B0718F4112341F00AC082179307A407F9
:100C8000B50740F4112319F061E070E005C06FEF83
:100C90007FEF02C060E070E0CB011F910895DF9309
:100CA000CF93CDB7DEB72D970FB6F894DEBF0FBE4A
:100CB000CDBF9B838A8381E089838A819B81009752
:100CC00011F41982C6C2EA81FB818081282F30E0AD
:100CD0003D872C878C859D850097A1F02C853D85CF
:100CE00021303105E9F4A0E4B0E0E0E4F0E08081F7
:100CF00080688C93A0E4B0E0E0E4F0E08081806460
:100D00008C930EC0A0E4B0E0E0E4F0E08081806865
:100D10008C93A0E4B0E0E0E4F0E080818F7B8C93E2
:100D2000EA81FB818481282F30E03B872A878A85EE
:100D30009B8582309105B1F12A853B8523303105B1
:100D4000D9F08A859B85009709F041C0A0E4B0E006
:100D5000E0E4F0E0808180688C93A0E4B0E0E0E41F
:100D6000F0E080818F7E8C93A0E4B0E0E0E4F0E0DE
:100D700080818F7D8C932BC0A0E4B0E0E0E4F0E0B4
:100D8000808180688C93A0E4B0E0E0E4F0E08081B2
:100D90008F7E8C93A0E4B0E0E0E4F0E0808180629C
:100DA0008C9315C0A0E4B0E0E0E4F0E080818068BE
:100DB0008C93A0E4B0E0E0E4F0E0808180618C936B
:100DC000A0E4B0E0E0E4F0E0808180628C93EA810E
:100DD000FB818581282F30E0398728878885998590
:100DE000009731F0288539852130310581F01DC00B
:100DF000A0E4B0E0E0E4F0E0808180688C93A0E4BF
:100E0000B0E0E0E4F0E08081877F8C930EC0A0E446
:100E1000B0E0E0E4F0E0808180688C93A0E4B0E092
:100E2000E0E4F0E0808188608C93EA81FB8183813B
:100E3000282F30E03F832E838E819F818230910561
:100E400009F456C02E813F812330310554F48E8140
:100E50009F81009799F02E813F812130310559F112
:100E60009DC08E819F818330910509F45EC02E81E3
:100E70003F812730310509F475C090C0A0E4B0E08F
:100E8000E0E4F0E0808180688C93A0E4B0E0E0E4EE
:100E9000F0E080818D7F8C93A0E4B0E0E0E4F0E0AE
:100EA00080818B7F8C93AAE2B0E0EAE2F0E080815F
:100EB0008B7F8C9373C0A0E4B0E0E0E4F0E080812D
:100EC00080688C93A0E4B0E0E0E4F0E08081826090
:100ED0008C93A0E4B0E0E0E4F0E080818B7F8C9321
:100EE000AAE2B0E0EAE2F0E080818B7F8C9356C00A
:100EF000A0E4B0E0E0E4F0E0808180688C93A0E4BE
:100F0000B0E0E0E4F0E080818D7F8C93A0E4B0E07D
:100F1000E0E4F0E0808184608C93AAE2B0E0EAE251
:100F2000F0E080818B7F8C9339C0A0E4B0E0E0E4F6
:100F3000F0E0808180688C93A0E4B0E0E0E4F0E031
:100F4000808182608C93A0E4B0E0E0E4F0E08081F6
:100F500084608C93AAE2B0E0EAE2F0E080818B7FCB
:100F60008C931CC0A0E4B0E0E0E4F0E080818068F5
:100F70008C93A0E4B0E0E0E4F0E0808182608C93A8
:100F8000A0E4B0E0E0E4F0E0808184608C93AAE229
:100F9000B0E0EAE2F0E0808184608C93EA81FB813A
:100FA000818192819D838C832C813D812931310502
:100FB00009F4D2C08C819D818A31910528F52C815C
:100FC0003D812830310509F406C18C819D8189302D
:100FD000910568F42C813D812130310509F425C14A
:100FE0008C819D818330910509F40AC132C12C8125
:100FF0003D812C30310509F4D9C08C819D8180312F
:10100000910509F4BEC025C12C813D8124343105F0
:1010100009F463C08C819D818534910568F42C812D
:101020003D812232310509F482C08C819D81833358
:10103000910509F467C00DC12C813D812F3C31051C
:1010400011F18C819D8121E0803A920731F08C81F1
:101050009D818736910561F1FCC0A0E4B0E0E0E439
:10106000F0E080818F778C93A0E4B0E0E0E4F0E0E2
:10107000808181608C93A9E2B0E0E9E2F0E08081B8
:10108000806A8C93E6C0A0E4B0E0E0E4F0E0808108
:101090008F778C93A9E2B0E0E9E2F0E080818F6C79
:1010A0008C93A0E4B0E0E0E4F0E080818C93D1C0C8
:1010B000A0E4B0E0E0E4F0E080818F778C93A9E2D7
:1010C000B0E0E9E2F0E0808187668C93A0E4B0E0D4
:1010D000E0E4F0E080818C93BCC0A0E4B0E0E0E408
:1010E000F0E080818F778C93A9E2B0E0E9E2F0E054
:1010F000808184648C93A0E4B0E0E0E4F0E080813F
:101100008C93A7C0A0E4B0E0E0E4F0E080818F77AA
:101110008C93A9E2B0E0E9E2F0E0808183638C93F4
:10112000A0E4B0E0E0E4F0E080818C9392C0A0E421
:10113000B0E0E0E4F0E080818F778C93A9E2B0E04A
:10114000E9E2F0E0808182628C93A0E4B0E0E0E428
:10115000F0E080818C937DC0A0E4B0E0E0E4F0E0BA
:1011600080818F778C93A9E2B0E0E9E2F0E08081A2
:1011700089618C93A0E4B0E0E0E4F0E080818C939E
:1011800068C0A0E4B0E0E0E4F0E080818F778C9369
:10119000A9E2B0E0E9E2F0E0808180618C93A0E414
:1011A000B0E0E0E4F0E080818C9353C0A0E4B0E0D4
:1011B000E0E4F0E080818F778C93A9E2B0E0E9E28F
:1011C000F0E080818C608C93A0E4B0E0E0E4F0E09B
:1011D00080818C933EC0A0E4B0E0E0E4F0E0808148
:1011E0008F778C93A9E2B0E0E9E2F0E0808188603B
:1011F0008C93A0E4B0E0E0E4F0E080818C9329C01F
:10120000A0E4B0E0E0E4F0E080818F778C93A9E285
:10121000B0E0E9E2F0E0808183608C93A0E4B0E08C
:10122000E0E4F0E080818C9314C0A0E4B0E0E0E45E
:10123000F0E080818F778C93A9E2B0E0E9E2F0E002
:10124000808181608C93A0E4B0E0E0E4F0E08081F4
:101250008C9389812D960FB6F894DEBF0FBECDBF5B
:10126000CF91DF910895DF93CF9300D000D00F92FC
:10127000CDB7DEB79B838A837D836C8381E08983CE
:101280008A819B81009711F4198239C0AAE2B0E0EB
:10129000EAE2F0E0808188608C93EA81FB818381BF
:1012A0008730E9F4EBE2F0E08081829586958770E3
:1012B000882F90E0817090700097A1F3AAE2B0E0CF
:1012C000EAE2F0E020818C819D81892F992781704D
:1012D000822B8C93ECE2F0E08C81808310C0EBE2F7
:1012E000F0E08081829586958770882F90E08170EC
:1012F00090700097A1F3ECE2F0E08C81808389810B
:101300000F900F900F900F900F90CF91DF91089555
:10131000DF93CF9300D000D00F92CDB7DEB79B8381
:101320008A837D836C8381E089838C819D81009792
:1013300021F08A819B81009711F4198235C0AAE2BD
:10134000B0E0EAE2F0E0808180618C93EA81FB8189
:1013500083818730D9F4EBE2F0E080818823DCF7E9
:10136000EAE2F0E080818695882F90E081709070AD
:10137000EC81FD8191838083ECE2F0E08081882F15
:1013800090E0EC81FD81918380830EC0EBE2F0E080
:1013900080818823DCF7ECE2F0E08081882F90E008
:1013A000EC81FD819183808389810F900F900F9054
:1013B0000F900F90CF91DF910895DF93CF9300D0DE
:1013C00000D00F92CDB7DEB79B838A837D836C8379
:1013D00081E089838C819D81009721F08A819B81A6
:1013E000009781F4198214C0EC81FD812081318144
:1013F0008A819B81B9010E9433098C819D8102966B
:101400009D838C83EC81FD8180819181009761F7C0
:1014100089810F900F900F900F900F90CF91DF91D7
:101420000895DF93CF9300D000D00F92CDB7DEB7F1
:101430009B838A837D836C8381E089838C819D81FA
:10144000009721F08A819B81009771F4198212C064
:101450008A819B812C813D81B9010E9488098C8100
:101460009D8102969D838C83EC81FD818081918199
:10147000009771F789810F900F900F900F900F9048
:10148000CF91DF910895DF93CF930F92CDB7DEB761
:1014900081E08983EFE5F0E0808180688083898145
:1014A0000F90CF91DF910895DF93CF930F92CDB737
:1014B000DEB781E08983AFE5B0E0EFE5F0E0808161
:1014C0008F778C9389810F90CF91DF910895DF936F
:1014D000CF9300D00F92CDB7DEB79B838A8381E094
:1014E00089838A819B81009711F419820EC00E9422
:1014F000430A8A819B810E944A0D8A819B810E94B6
:10150000D90B8A819B810E948B0D89810F900F904E
:101510000F90CF91DF910895DF93CF9300D00F927A
:10152000CDB7DEB79B838A8381E089838A819B81E3
:10153000009711F4198204C08A819B810E943E0C9D
:1015400089810F900F900F90CF91DF910895DF93D5
:10155000CF9300D00F92CDB7DEB79B838A8381E013
:1015600089838A819B81009711F4198204C08A8142
:101570009B810E94A60B89810F900F900F90CF91B5
:10158000DF910895DF93CF93CDB7DEB727970FB6DE
:10159000F894DEBF0FBECDBF9B838A837D836C83AF
:1015A00081E089838A819B81009711F4198223C08D
:1015B000EA81FB818281882F90E00097E1F4EA8143
:1015C000FB818381282F30E03F832E838E819F8192
:1015D000009731F02E813F812230310531F00AC071
:1015E000E2E5F0E08C81808306C0ECE5F0E08C81E0
:1015F000808301C01982898127960FB6F894DEBFD7
:101600000FBECDBFCF91DF910895DF93CF93CDB7BC
:10161000DEB727970FB6F894DEBF0FBECDBF9B8312
:101620008A837D836C8381E089838A819B81009793
:1016300011F4198227C0EA81FB818281882F90E012
:10164000009701F5EA81FB818381282F30E03F83F9
:101650002E838E819F81009731F02E813F81223031
:10166000310541F00EC0EC81FD81A2E5B0E08C9126
:10167000808308C0EC81FD81ACE5B0E08C91808373
:1016800001C01982898127960FB6F894DEBF0FBE7C
:10169000CDBFCF91DF9108951F920F920FB60F9299
:1016A00011242F933F934F935F936F937F938F9367
:1016B0009F93AF93BF93EF93FF93DF93CF93CDB7F8
:1016C000DEB7E091E300F091E4000995CF91DF915E
:1016D000FF91EF91BF91AF919F918F917F916F910A
:1016E0005F914F913F912F910F900FBE0F901F90E0
:1016F00018951F920F920FB60F9211242F933F93BC
:101700004F935F936F937F938F939F93AF93BF9309
:10171000EF93FF93DF93CF93CDB7DEB7E091E50072
:10172000F091E6000995CF91DF91FF91EF91BF9184
:10173000AF919F918F917F916F915F914F913F9169
:101740002F910F900FBE0F901F901895DF93CF939E
:1017500000D00F92CDB7DEB79B838A8381E0898367
:101760008A819B81009711F419821CC0EA81FB8158
:101770008281882F90E00097A9F4A3E5B0E0E3E52B
:10178000F0E080818E7F8C93A3E5B0E0E3E5F0E0AC
:1017900080818D7F8C93A3E5B0E0E3E5F0E080816C
:1017A0008B7F8C9389810F900F900F90CF91DF9159
:1017B0000895DF93CF9300D000D00F92CDB7DEB75E
:1017C0009B838A8381E089838A819B81009709F4C6
:1017D0001982EA81FB818281882F90E0009709F0CD
:1017E00044C0EA81FB818381282F30E03D832C8334
:1017F0008C819D81009731F02C813D812230310513
:10180000D1F032C0A3E5B0E0E3E5F0E080818F7B6A
:101810008C93A3E5B0E0E3E5F0E08081877F8C93D3
:10182000A2E5B0E0E2E5F0E09081EA81FB8185810C
:10183000892B8C931AC0A3E5B0E0E3E5F0E080814A
:101840008F7B8C93A3E5B0E0E3E5F0E080818860D6
:101850008C93ACE5B0E0ECE5F0E09081EA81FB81AF
:101860008681892B8C9301C0198289810F900F90FA
:101870000F900F900F90CF91DF910895DF93CF934A
:1018800000D000D00F92CDB7DEB79B838A8381E072
:1018900089838A819B81009711F41982F2C0EA81C1
:1018A000FB818281882F90E0009709F0EAC0EA81ED
:1018B000FB818481282F30E03D832C838C819D81A6
:1018C0008330910509F470C02C813D8124303105AD
:1018D00084F48C819D8181309105D1F12C813D81F1
:1018E000223031050CF04AC08C819D810097D1F0E7
:1018F000C8C02C813D812530310509F481C08C811F
:101900009D81853091050CF465C02C813D81263088
:10191000310509F48BC08C819D818730910509F4D4
:101920009BC0AFC0A3E5B0E0E3E5F0E080818E7F2F
:101930008C93A3E5B0E0E3E5F0E080818D7F8C93AC
:10194000A3E5B0E0E3E5F0E080818B7F8C9399C064
:10195000A3E5B0E0E3E5F0E0808181608C93A3E54E
:10196000B0E0E3E5F0E080818D7F8C93A3E5B0E00B
:10197000E3E5F0E080818B7F8C9383C0A3E5B0E04A
:10198000E3E5F0E080818E7F8C93A3E5B0E0E3E5B2
:10199000F0E0808182608C93A3E5B0E0E3E5F0E0C5
:1019A00080818B7F8C936DC0A3E5B0E0E3E5F0E030
:1019B000808181608C93A3E5B0E0E3E5F0E0808175
:1019C00082608C93A3E5B0E0E3E5F0E080818B7F5B
:1019D0008C9357C0A3E5B0E0E3E5F0E080818E7F13
:1019E0008C93A3E5B0E0E3E5F0E080818D7F8C93FC
:1019F000A3E5B0E0E3E5F0E0808184608C9341C032
:101A0000A3E5B0E0E3E5F0E0808181608C93A3E59D
:101A1000B0E0E3E5F0E080818D7F8C93A3E5B0E05A
:101A2000E3E5F0E0808184608C932BC0A3E5B0E017
:101A3000E3E5F0E080818E7F8C93A3E5B0E0E3E501
:101A4000F0E0808182608C93A3E5B0E0E3E5F0E014
:101A5000808184608C9315C0A3E5B0E0E3E5F0E0FD
:101A6000808181608C93A3E5B0E0E3E5F0E08081C4
:101A700082608C93A3E5B0E0E3E5F0E080818460D0
:101A80008C9389810F900F900F900F900F90CF91B2
:101A9000DF910895DF93CF9300D000D00F92CDB7A0
:101AA000DEB79B838A8381E089838A819B8100974B
:101AB00011F4198227C0EA81FB818281882F90E08E
:101AC000009701F5EA81FB818381282F30E03D8377
:101AD0002C838C819D81009731F02C813D812230B7
:101AE000310549F00FC0A9E5B0E0E9E5F0E08081FB
:101AF00081608C9307C0A9E5B0E0E9E5F0E0808162
:101B000082608C9389810F900F900F900F900F90AF
:101B1000CF91DF910895DF93CF9300D000D00F9243
:101B2000CDB7DEB79B838A8381E089838A819B81DD
:101B3000009711F4198229C0EA81FB818281882FE4
:101B400090E0009711F5EA81FB818381282F30E036
:101B50003D832C838C819D81009731F02C813D81C8
:101B60002230310551F011C0EA81FB8180819181E1
:101B70009093E4008093E30008C0EA81FB818081B8
:101B800091819093E6008093E50089810F900F90FA
:101B90000F900F900F90CF91DF910895DF93CF9327
:101BA00000D00F92CDB7DEB79B838A8319828A81DA
:101BB0009B81009711F4198217C00E94430A898300
:101BC0008A819B810E94A40F89838A819B810E94C4
:101BD000160E89838A819B810E94980E89838A814F
:101BE0009B810E94B90F898389810F900F900F907C
:101BF000CF91DF910895DF93CF9300D00F92CDB7AF
:101C0000DEB79B838A8319828A819B81009711F4B6
:101C1000198205C08A819B810E94570E8983898120
:101C20000F900F900F90CF91DF910895DF93CF9396
:101C300000D000D00F92CDB7DEB79B838A83198284
:101C4000EA81FB818381282F30E03D832C838C81C6
:101C50009D818130910589F02C813D8122303105B3
:101C6000A1F08C819D810097C1F4ABE5B0E0EBE57C
:101C7000F0E0808180648C9311C0ABE5B0E0EBE5CF
:101C8000F0E0808180688C9309C0ABE5B0E0EBE5C3
:101C9000F0E0808180628C9301C0198289810F906D
:101CA0000F900F900F900F90CF91DF910895DF93D9
:101CB000CF9300D000D00F92CDB7DEB79B838A833D
:101CC0001982EA81FB818381282F30E03D832C83B8
:101CD0008C819D818130910589F02C813D8122305C
:101CE0003105A1F08C819D810097C1F4ABE5B0E096
:101CF000EBE5F0E080818F7B8C9311C0ABE5B0E029
:101D0000EBE5F0E080818F778C9309C0ABE5B0E024
:101D1000EBE5F0E080818F7D8C9301C01982898191
:101D20000F900F900F900F900F90CF91DF9108952B
:101D3000DF93CF93CDB7DEB72B970FB6F894DEBF06
:101D40000FBECDBF9B838A831982EA81FB81838189
:101D5000282F30E03B872A878A859B858130910533
:101D600009F468C02A853B852230310509F4BFC0DB
:101D70008A859B85009709F0DDC0EA81FB8184811B
:101D8000282F30E03987288788859985813091050B
:101D900021F128853985223031052CF488859985F3
:101DA000009761F0C7C0288539852230310521F1BF
:101DB000888599858330910571F1BCC0A5E5B0E0B7
:101DC000E5E5F0E080818E7F8C93A5E5B0E0E5E568
:101DD000F0E080818D7F8C93ADC0A5E5B0E0E5E5B6
:101DE000F0E0808181608C93A5E5B0E0E5E5F0E06E
:101DF00080818D7F8C939EC0A5E5B0E0E5E5F0E0A5
:101E000080818E7F8C93A5E5B0E0E5E5F0E08081F0
:101E100082608C938FC0A5E5B0E0E5E5F0E08081BD
:101E200081608C93A5E5B0E0E5E5F0E0808182601B
:101E30008C9380C0EA81FB818481282F30E03F832E
:101E40002E838E819F818130910521F12E813F81EA
:101E5000223031052CF48E819F81009761F06AC099
:101E60002E813F812230310521F18E819F81833087
:101E7000910571F15FC0A5E5B0E0E5E5F0E0808196
:101E80008E7F8C93A5E5B0E0E5E5F0E080818D7F65
:101E90008C9350C0A5E5B0E0E5E5F0E0808181607D
:101EA0008C93A5E5B0E0E5E5F0E080818D7F8C9333
:101EB00041C0A5E5B0E0E5E5F0E080818E7F8C9340
:101EC000A5E5B0E0E5E5F0E0808182608C9332C06A
:101ED000A5E5B0E0E5E5F0E0808181608C93A5E5C3
:101EE000B0E0E5E5F0E0808182608C9323C0EA8178
:101EF000FB818481282F30E03D832C838C819D8160
:101F00008230910531F02C813D812330310549F03B
:101F100010C0A4E5B0E0E4E5F0E080818F7B8C9315
:101F200009C0A4E5B0E0E4E5F0E0808180648C9332
:101F300001C0198289812B960FB6F894DEBF0FBEBF
:101F4000CDBFCF91DF910895DF93CF9300D00F9253
:101F5000CDB7DEB79B838A8319828A819B810E94D9
:101F60005211898389810F900F900F90CF91DF914B
:101F70000895DF93CF9300D000D00F92CDB7DEB796
:101F80009B838A8381E089838A819B81009711F4F6
:101F9000198231C0EA81FB818381282F30E03D83A3
:101FA0002C838C819D818130910591F02C813D8124
:101FB00022303105B1F08C819D810097D9F4EA81FE
:101FC000FB81818192819093F0008093EF0013C098
:101FD000EA81FB81818192819093F2008093F100EC
:101FE0000AC0EA81FB81818192819093F400809301
:101FF000F30001C0198289810F900F900F900F900C
:102000000F90CF91DF9108951F920F920FB60F920C
:1020100011242F933F934F935F936F937F938F93ED
:102020009F93AF93BF93EF93FF93DF93CF93CDB77E
:10203000DEB78091EF009091F000009729F0E091D9
:10204000EF00F091F0000995CF91DF91FF91EF91B2
:10205000BF91AF919F918F917F916F915F914F91C0
:102060003F912F910F900FBE0F901F9018951F92C8
:102070000F920FB60F9211242F933F934F935F93BC
:102080006F937F938F939F93AF93BF93EF93FF9340
:10209000DF93CF93CDB7DEB78091F1009091F2003E
:1020A000009729F0E091F100F091F2000995CF91AD
:1020B000DF91FF91EF91BF91AF919F918F917F91B0
:1020C0006F915F914F913F912F910F900FBE0F90A5
:1020D0001F9018951F920F920FB60F9211242F93F5
:1020E0003F934F935F936F937F938F939F93AF93A0
:1020F000BF93EF93FF93DF93CF93CDB7DEB780917C
:10210000F3009091F400009729F0E091F300F09132
:10211000F4000995CF91DF91FF91EF91BF91AF91BD
:102120009F918F917F916F915F914F913F912F91EF
:102130000F900FBE0F901F901895DF93CF9300D094
:1021400000D0CDB7DEB79B838A836C8381E089831F
:102150008A819B8124E08030920710F019821CC094
:10216000ECE3F0E080818695882F90E0817090709C
:102170008823B1F7EEE3F0E08A818083EFE3F0E0BB
:102180008A819B81892F992783708083EDE3F0E01A
:102190008C818083E29AE19A89810F900F900F9051
:1021A0000F90CF91DF910895DF93CF9300D000D0AF
:1021B0000F92CDB7DEB79B838A837D836C8381E0EA
:1021C00089838A819B8124E08030920720F48C816E
:1021D0009D81009711F4198223C0ECE3F0E0808127
:1021E0008695882F90E0817090708823B1F7EEE398
:1021F000F0E08A818083EFE3F0E08A819B81892F80
:10220000992783708083ACE3B0E0ECE3F0E0808159
:1022100081608C93EDE3F0E08081EC81FD8180832F
:1022200089810F900F900F900F900F90CF91DF91B9
:102230000895DF93CF930F92CDB7DEB781E0898306
:10224000E0916C00F0916D008FEF8083E0916E0063
:10225000F0916F008FEF8083E0917000F09171003A
:102260008FEF8083E0917200F09173008BEF808399
:10227000E0917400F09175001082E0917600F09189
:1022800077001082E0917800F09179001082E0915F
:102290007A00F0917B0084E0808389810F90CF9158
:1022A000DF910895DF93CF9300D000D00F92CDB788
:1022B000DEB79B838A8381E089838A819B81009733
:1022C000A1F0EA81FB8180818370882F90E08430C7
:1022D00091055CF4EA81FB81808186958695877003
:1022E000882F90E08830910514F0198278C0EA8137
:1022F000FB81808182958695869583708170282FD9
:1023000030E03D832C838C819D810097B1F12C813D
:102310003D812130310509F061C0EA81FB81808176
:102320008370882F90E0880F991FFC01E459FF4FBC
:10233000A081B181EA81FB8180818370882F90E048
:10234000880F991FFC01E459FF4F0190F081E02DA7
:102350008081482FEA81FB818081869586958770F0
:10236000282F30E081E090E0022E02C0880F991FF4
:102370000A94E2F7842B8C9332C0EA81FB8180813E
:102380008370882F90E0880F991FFC01E459FF4F5C
:10239000A081B181EA81FB8180818370882F90E0E8
:1023A000880F991FFC01E459FF4F0190F081E02D47
:1023B0008081482FEA81FB81808186958695877090
:1023C000282F30E081E090E0022E02C0880F991F94
:1023D0000A94E2F7809584238C9301C01982898145
:1023E0000F900F900F900F900F90CF91DF91089565
:1023F000DF93CF9300D000D00F92CDB7DEB79B8391
:102400008A837D836C8381E089838A819B810097A5
:10241000C1F08C819D810097A1F0EA81FB818081D0
:10242000869586958770882F90E0883091054CF4CA
:10243000EA81FB8180818370882F90E08430910550
:1024400014F0198224C0EA81FB8180818370882F77
:1024500090E0880F991FFC01E459FF4F0190F08133
:10246000E02D8081282F30E0EA81FB8180818695F4
:1024700086958770882F90E0A90102C055954795F1
:102480008A95E2F7CA018170EC81FD8180838981A0
:102490000F900F900F900F900F90CF91DF910895B4
:1024A000DF93CF9300D000D000D0CDB7DEB79B83B1
:1024B0008A836C8381E089838A819B810097A1F064
:1024C000EA81FB8180818370882F90E084309105C0
:1024D0005CF4EA81FB818081869586958770882FE0
:1024E00090E08830910514F0198271C08C81282FFA
:1024F00030E03E832D838D819E810097B1F12D8147
:102500003E812130310509F061C0EA81FB81808183
:102510008370882F90E0880F991FFC01EC58FF4FC3
:10252000A081B181EA81FB8180818370882F90E056
:10253000880F991FFC01EC58FF4F0190F081E02DAE
:102540008081482FEA81FB818081869586958770FE
:10255000282F30E081E090E0022E02C0880F991F02
:102560000A94E2F7842B8C9332C0EA81FB8180814C
:102570008370882F90E0880F991FFC01EC58FF4F63
:10258000A081B181EA81FB8180818370882F90E0F6
:10259000880F991FFC01EC58FF4F0190F081E02D4E
:1025A0008081482FEA81FB8180818695869587709E
:1025B000282F30E081E090E0022E02C0880F991FA2
:1025C0000A94E2F7809584238C9301C01982898153
:1025D00026960FB6F894DEBF0FBECDBFCF91DF9128
:1025E0000895DF93CF9300D000D00F92CDB7DEB720
:1025F0009B838A837D836C8381E089838A819B812D
:102600000097C1F08C819D810097A1F0EA81FB8148
:102610008081869586958770882F90E08830910517
:102620004CF4EA81FB8180818370882F90E08430B4
:10263000910514F0198224C0EA81FB8180818370A6
:10264000882F90E0880F991FFC01E458FF4F0190FC
:10265000F081E02D8081282F30E0EA81FB818081AC
:10266000869586958770882F90E0A90102C05595C0
:1026700047958A95E2F7CA018170EC81FD818083DC
:1026800089810F900F900F900F900F90CF91DF9155
:102690000895DF93CF9300D00F92CDB7DEB79B8321
:1026A0008A8381E089838A819B810097A1F0EA81F6
:1026B000FB818081869586958770882F90E0883091
:1026C00091054CF4EA81FB8180818370882F90E032
:1026D0008430910514F019822FC0EA81FB8180813A
:1026E0008370882F90E0880F991FFC01EC58FF4FF2
:1026F000A081B181EA81FB8180818370882F90E085
:10270000880F991FFC01EC58FF4F0190F081E02DDC
:102710008081482FEA81FB8180818695869587702C
:10272000282F30E081E090E0022E02C0880F991F30
:102730000A94E2F784278C9389810F900F900F9071
:10274000CF91DF910895DF93CF9300D000D00F9207
:10275000CDB7DEB78A836B8381E089838B8182303A
:1027600018F48A81843010F0198229C08B81282FB7
:1027700030E03D832C838C819D81009731F02C814A
:102780003D812130310571F01AC08A81882F90E097
:10279000880F991FFC01E459FF4F0190F081E02D53
:1027A00010820DC08A81882F90E0880F991FFC014C
:1027B000E459FF4F0190F081E02D8FEF80838981F4
:1027C0000F900F900F900F900F90CF91DF91089581
:1027D000DF93CF9300D000D0CDB7DEB78A837C8360
:1027E0006B8381E089838A81843010F019821BC059
:1027F0008A81882F90E0880F991FFC01E459FF4FD0
:10280000A081B1818A81882F90E0880F991FFC01F7
:10281000E459FF4F0190F081E02D80818C938C91E1
:10282000EB81FC81808389810F900F900F900F9036
:10283000CF91DF910895DF93CF9300D000D00F9216
:10284000CDB7DEB78A836B8381E089838A81843048
:1028500010F0198228C08B81282F30E03D832C8313
:102860008C819D81009799F02C813D812F3F31050E
:10287000D1F48A81882F90E0880F991FFC01EC58D1
:10288000FF4F0190F081E02D8FEF80830CC08A8193
:10289000882F90E0880F991FFC01EC58FF4F0190A2
:1028A000F081E02D108289810F900F900F900F9092
:1028B0000F90CF91DF910895DF93CF9300D000D098
:1028C000CDB7DEB78A837C836B8381E089838A817D
:1028D000843010F019821BC08A81882F90E0880F05
:1028E000991FFC01E458FF4FA081B1818A81882F94
:1028F00090E0880F991FFC01E458FF4F0190F08190
:10290000E02D80818C938C91EB81FC818083898187
:102910000F900F900F900F90CF91DF910895DF935C
:10292000CF9300D0CDB7DEB78A8381E089838A81D7
:10293000843010F0198218C08A81882F90E0880FA7
:10294000991FFC01EC58FF4FA081B1818A81882F2B
:1029500090E0880F991FFC01EC58FF4F0190F08127
:10296000E02D808180958C9389810F900F90CF917D
:10297000DF910895DF93CF9300D00F92CDB7DEB7EC
:102980009B838A8381E089838A819B81009711F4EC
:10299000198220C08A819B810E9466158A819B8151
:1029A0000E9482158A819B810E94C4168A819B8124
:1029B0000E9488168A819B810E9427188A819B81A8
:1029C0000E9421170E943D190E94430A8A819B811F
:1029D0000E94121989810F900F900F90CF91DF9173
:1029E0000895DF93CF9300D000D00F92CDB7DEB71C
:1029F0009B838A837D836C8381E089838A819B8129
:102A0000009721F08C819D81009711F4198221C0DB
:102A10000E942A19E6E2F0E08081829586958695EB
:102A20008370882F90E081709070009799F3E4E2B2
:102A3000F0E08081282F30E0E5E2F0E08081882F0F
:102A400090E0982F8827822B932BEC81FD81918336
:102A5000808389810F900F900F900F900F90CF91EE
:102A6000DF910895DF93CF9300D000D00F92CDB7C0
:102A7000DEB79B838A837D836C8381E089838A812F
:102A80009B81009711F4198218C00E942A198A812B
:102A90009B810E945019E4E2F0E08081282F30E011
:102AA000E5E2F0E08081882F90E0982F8827822B44
:102AB000932BEC81FD819183808389810F900F900E
:102AC0000F900F900F90CF91DF910895DF93CF93E8
:102AD00000D00F92CDB7DEB79B838A8381E08983D4
:102AE0008A819B81009711F4198205C08A819B819C
:102AF00002960E94521189810F900F900F90CF91F2
:102B0000DF910895DF93CF9300D000D00F92CDB71F
:102B1000DEB79B838A8381E089838A819B810097CA
:102B200011F41982ECC0EA81FB818381282F30E007
:102B30003D832C838C819D818330910509F470C085
:102B40002C813D812430310584F48C819D8181303C
:102B50009105D1F12C813D81223031050CF04AC024
:102B60008C819D810097D1F0C9C02C813D81253099
:102B7000310509F481C08C819D81853091050CF46B
:102B800065C02C813D812630310509F48BC08C81D4
:102B90009D818730910509F49BC0B0C0A7E2B0E0E9
:102BA000E7E2F0E080818E7F8C93A7E2B0E0E7E27D
:102BB000F0E080818D7F8C93A7E2B0E0E7E2F0E067
:102BC00080818B7F8C939BC0A7E2B0E0E7E2F0E0CE
:102BD000808181608C93A7E2B0E0E7E2F0E0808141
:102BE0008D7F8C93A7E2B0E0E7E2F0E080818B7FFD
:102BF0008C9385C0A7E2B0E0E7E2F0E080818E7FB1
:102C00008C93A7E2B0E0E7E2F0E0808182608C93F1
:102C1000A7E2B0E0E7E2F0E080818B7F8C936FC0A9
:102C2000A7E2B0E0E7E2F0E0808181608C93A7E268
:102C3000B0E0E7E2F0E0808182608C93A7E2B0E050
:102C4000E7E2F0E080818B7F8C9359C0A7E2B0E08F
:102C5000E7E2F0E080818E7F8C93A7E2B0E0E7E2CC
:102C6000F0E080818D7F8C93A7E2B0E0E7E2F0E0B6
:102C7000808184608C9343C0A7E2B0E0E7E2F0E09B
:102C8000808181608C93A7E2B0E0E7E2F0E0808190
:102C90008D7F8C93A7E2B0E0E7E2F0E08081846072
:102CA0008C932DC0A7E2B0E0E7E2F0E080818E7F58
:102CB0008C93A7E2B0E0E7E2F0E0808182608C9341
:102CC000A7E2B0E0E7E2F0E0808184608C9317C077
:102CD000A7E2B0E0E7E2F0E0808181608C93A7E2B8
:102CE000B0E0E7E2F0E0808182608C93A7E2B0E0A0
:102CF000E7E2F0E0808184608C9301C019828981D1
:102D00000F900F900F900F900F90CF91DF9108953B
:102D1000DF93CF9300D000D00F92CDB7DEB79B8367
:102D20008A8381E089838A819B81009711F41982CB
:102D300022C0EA81FB818681282F30E03D832C83ED
:102D40008C819D81009731F02C813D8121303105AE
:102D500049F010C0A7E2B0E0E7E2F0E080818F7DAB
:102D60008C9309C0A7E2B0E0E7E2F0E080818062E6
:102D70008C9301C0198289810F900F900F900F9052
:102D80000F90CF91DF910895DF93CF9300D000D0C3
:102D90000F92CDB7DEB79B838A8381E089838A81D6
:102DA0009B81009711F4198243C0EA81FB818481E1
:102DB000282F30E03D832C838C819D8181309105CB
:102DC000C1F02C813D812330310511F18C819D8131
:102DD000009769F5A7E2B0E0E7E2F0E080818F7B41
:102DE0008C93A7E2B0E0E7E2F0E080818F778C93EC
:102DF0001FC0A7E2B0E0E7E2F0E0808180648C933E
:102E0000A7E2B0E0E7E2F0E080818F778C9310C01A
:102E1000A7E2B0E0E7E2F0E0808180648C93A7E273
:102E2000B0E0E7E2F0E0808180688C9301C0198215
:102E300089810F900F900F900F900F90CF91DF919D
:102E40000895DF93CF9300D000D00F92CDB7DEB7B7
:102E50009B838A8381E089838A819B81009711F417
:102E60001982ECC0EA81FB818781282F30E03D8305
:102E70002C838C819D818330910509F470C02C8155
:102E80003D812430310584F48C819D818130910510
:102E9000D1F12C813D81223031050CF04AC08C816A
:102EA0009D810097D1F0C9C02C813D81253031052D
:102EB00009F481C08C819D81853091050CF465C039
:102EC0002C813D812630310509F48BC08C819D8198
:102ED0008730910509F49BC0B0C0A0E5B0E0E0E503
:102EE000F0E080818F7D8C93A0E5B0E0E0E5F0E03C
:102EF00080818F7B8C93A0E5B0E0E0E5F0E08081FD
:102F00008F778C939BC0A0E5B0E0E0E5F0E0808196
:102F100080628C93A0E5B0E0E0E5F0E080818F7BFB
:102F20008C93A0E5B0E0E0E5F0E080818F778C93B2
:102F300085C0A0E5B0E0E0E5F0E080818F7D8C9376
:102F4000A0E5B0E0E0E5F0E0808180648C93A0E54E
:102F5000B0E0E0E5F0E080818F778C936FC0A0E572
:102F6000B0E0E0E5F0E0808180628C93A0E5B0E025
:102F7000E0E5F0E0808180648C93A0E5B0E0E0E5DE
:102F8000F0E080818F778C9359C0A0E5B0E0E0E558
:102F9000F0E080818F7D8C93A0E5B0E0E0E5F0E08B
:102FA00080818F7B8C93A0E5B0E0E0E5F0E080814C
:102FB00080688C9343C0A0E5B0E0E0E5F0E080815C
:102FC00080628C93A0E5B0E0E0E5F0E080818F7B4B
:102FD0008C93A0E5B0E0E0E5F0E0808180688C9320
:102FE0002DC0A0E5B0E0E0E5F0E080818F7D8C931E
:102FF000A0E5B0E0E0E5F0E0808180648C93A0E59E
:10300000B0E0E0E5F0E0808180688C9317C0A0E537
:10301000B0E0E0E5F0E0808180628C93A0E5B0E074
:10302000E0E5F0E0808180648C93A0E5B0E0E0E52D
:10303000F0E0808180688C9301C0198289810F90B3
:103040000F900F900F900F90CF91DF910895DF9325
:10305000CF9300D000D00F92CDB7DEB79B838A8389
:1030600081E089838A819B81009711F41982D1C004
:10307000EA81FB818581282F30E03D832C838C8180
:103080009D818430910509F46BC02C813D812530F0
:1030900031058CF48C819D8182309105A9F12C81C0
:1030A0003D81233031050CF045C08C819D818130FC
:1030B0009105A1F0ADC02C813D812630310509F488
:1030C0007BC08C819D81863091050CF45FC02C8182
:1030D0003D812730310509F485C09AC0A6E2B0E0F1
:1030E000E6E2F0E0808181608C93A6E2B0E0E6E267
:1030F000F0E080818D7F8C93A6E2B0E0E6E2F0E024
:1031000080818B7F8C9385C0A6E2B0E0E6E2F0E0A0
:1031100080818E7F8C93A6E2B0E0E6E2F0E08081D1
:1031200082608C93A6E2B0E0E6E2F0E080818B7FE3
:103130008C936FC0A6E2B0E0E6E2F0E080818E7F83
:103140008C93A6E2B0E0E6E2F0E0808182608C93AE
:10315000A6E2B0E0E6E2F0E0808184608C9359C0A2
:10316000A6E2B0E0E6E2F0E080818E7F8C93A6E2FA
:10317000B0E0E6E2F0E080818D7F8C93A6E2B0E0E3
:10318000E6E2F0E0808184608C9343C0A6E2B0E088
:10319000E6E2F0E0808181608C93A6E2B0E0E6E2B6
:1031A000F0E080818D7F8C93A6E2B0E0E6E2F0E073
:1031B000808184608C932DC0A6E2B0E0E6E2F0E06E
:1031C00080818E7F8C93A6E2B0E0E6E2F0E0808121
:1031D00082608C93A6E2B0E0E6E2F0E08081846059
:1031E0008C9317C0A6E2B0E0E6E2F0E08081816057
:1031F0008C93A6E2B0E0E6E2F0E0808182608C93FE
:10320000A6E2B0E0E6E2F0E0808184608C9301C049
:10321000198289810F900F900F900F900F90CF918E
:10322000DF910895DF93CF9300D00F92CDB7DEB733
:103230009B838A8381E08983A6E2B0E0E6E2F0E046
:10324000808188608C9389810F900F900F90CF912F
:10325000DF910895DF93CF930F92CDB7DEB781E072
:103260008983A6E2B0E0E6E2F0E0808180648C939E
:1032700089810F90CF91DF910895DF93CF930F92C3
:10328000CDB7DEB781E08983A6E2B0E0E6E2F0E008
:10329000808180688C9389810F90CF91DF91089510
:1032A000DF93CF9300D00F92CDB7DEB79B838A8395
:1032B00081E089838A819B81009711F4198208C07B
:1032C000EA81FB81808191819093F6008093F500E3
:1032D00089810F900F900F90CF91DF9108951F92E9
:1032E0000F920FB60F9211242F933F934F935F933A
:1032F0006F937F938F939F93AF93BF93EF93FF93BE
:10330000DF93CF93CDB7DEB78091F5009091F600B3
:10331000009729F0E091F500F091F6000995A6E2FA
:10332000B0E0E6E2F0E0808180618C93CF91DF91A4
:10333000FF91EF91BF91AF919F918F917F916F918D
:103340005F914F913F912F910F900FBE0F901F9063
:103350001895DF93CF930F92CDB7DEB781E08983C5
:103360000E94191189810F90CF91DF910895DF9309
:10337000CF9300D000D0CDB7DEB79B838A836C8318
:1033800019828A819B81009719F08C818A3010F014
:10339000198237C02A813B818C81482F4170C90135
:1033A000642F0E94501289838A819B819C012F5F28
:1033B0003F4F8C818695482F4170C901642F0E9430
:1033C000501289838A819B819C012E5F3F4F8C81A3
:1033D00086958695482F4170C901642F0E9450122E
:1033E00089838A819B819C012D5F3F4F8C818695CB
:1033F00086958695482F4170C901642F0E9450120E
:10340000898389810F900F900F900F90CF91DF915A
:103410000895DF93CF930F92CDB7DEB781E0898314
:103420000E94191189810F90CF91DF910895DF9348
:10343000CF9300D000D0CDB7DEB79C838B831982A9
:10344000EB81FC818081282F2370EB81FC818081BE
:10345000982F969596959770EB81FC818081382FF7
:1034600032953695377031701A8223708A818C7F3D
:10347000822B8A83892F8770982F990F990F8A81C1
:10348000837E892B8A83832F8170982F9295990F41
:10349000907E8A818F7D892B8A838B819C81009786
:1034A00011F4198207C0CE01029661E00E94501209
:1034B00081E0898389810F900F900F900F90CF91B9
:1034C000DF910895DF93CF9300D000D0CDB7DEB762
:1034D0009C838B831982EB81FC818081282F237050
:1034E000EB81FC818081982F969596959770EB8162
:1034F000FC818081382F32953695377031701A8271
:1035000023708A818C7F822B8A83892F8770982FE2
:10351000990F990F8A81837E892B8A83832F8170EB
:10352000982F9295990F907E8A818F7D892B8A831F
:103530008B819C81009711F4198207C0CE010296FD
:1035400060E00E94501281E0898389810F900F9082
:103550000F900F90CF91DF910895DF93CF930F924B
:10356000CDB7DEB781E089830E94191189810F9060
:10357000CF91DF910895DF93CF9300D000D0CDB7E6
:10358000DEB79C838B83EB81FC818081982F9370C5
:10359000EB81FC818081282F269526952770EB8171
:1035A000FC818081382F3295369537703170EB81F0
:1035B000FC818081482F4295469546954370417025
:1035C00093708A818C7F892B8A83822F8770982FB2
:1035D000990F990F8A81837E892B8A83832F81702B
:1035E000982F9295990F907E8A818F7D892B8A835F
:1035F000842F8170982F9295990F990F907C8A81D2
:103600008F7B892B8A8381E089838B819C810097C2
:1036100011F4198205C0CE01029661E00E94501299
:1036200089810F900F900F900F90CF91DF910895A7
:10363000DF93CF9300D000D0CDB7DEB79C838B83D0
:10364000EB81FC818081982F9370EB81FC818081DC
:10365000282F269526952770EB81FC818081382FB5
:103660003295369537703170EB81FC818081482F1F
:103670004295469546954370417093708A818C7F40
:10368000892B8A83822F8770982F990F990F8A81AF
:10369000837E892B8A83832F8170982F9295990F2F
:1036A000907E8A818F7D892B8A83842F8170982FC9
:1036B0009295990F990F907C8A818F7B892B8A83B1
:1036C00081E089838B819C81009711F4198205C068
:1036D000CE01029660E00E94501289810F900F90F7
:1036E0000F900F90CF91DF910895DF93CF9300D08B
:1036F00000D0CDB7DEB79C838B83EB81FC818081CA
:10370000982F9370EB81FC818081282F2695269538
:103710002770EB81FC818081382F32953695377088
:103720003170EB81FC818081482F4295469546950A
:103730004370417093708A818C7F892B8A83822F9A
:103740008770982F990F990F8A81837E892B8A839E
:10375000832F8170982F9295990F907E8A818F7D0B
:10376000892B8A83842F8170982F9295990F990FB6
:10377000907C8A818F7B892B8A8381E089838B81EE
:103780009C81009711F4198204C0CE0102960E9418
:10379000491389810F900F900F900F90CF91DF9177
:1037A0000895DF93CF93CDB7DEB7E7970FB6F894C0
:1037B000DEBF0FBECDBF9FAB8EAB1DAA8EA99FA94A
:1037C000009711F41DAADAC10E94191180E090E05F
:1037D000A0EAB1E489AB9AABABABBCAB69A97AA95F
:1037E0008BA99CA920E030E04AEF54E40E941F021C
:1037F000DC01CB018DA79EA7AFA7B8AB6DA57EA5B9
:103800008FA598A920E030E040E85FE30E942504FE
:1038100088232CF481E090E09CA78BA73FC06DA586
:103820007EA58FA598A920E03FEF4FE757E40E94BF
:10383000C50318164CF569A97AA98BA99CA920E0A3
:1038400030E040E251E40E941F02DC01CB01BC01E8
:10385000CD010E944900DC01CB019CA78BA70FC0C2
:1038600088EC90E09AA789A789A59AA50197F1F716
:103870009AA789A78BA59CA501979CA78BA78BA529
:103880009CA5009769F714C06DA57EA58FA598A982
:103890000E944900DC01CB019CA78BA78BA59CA5AE
:1038A00098A78FA38FA198A50197F1F798A78FA349
:1038B0008EA99FA968E30E94C81D8DAB80E090E0AF
:1038C000A0EAB0E48BA39CA3ADA3BEA36BA17CA193
:1038D0008DA19EA120E030E04AEF54E40E941F0237
:1038E000DC01CB018F8F98A3A9A3BAA36F8D78A118
:1038F00089A19AA120E030E040E85FE30E9425041E
:1039000088232CF481E090E09E8F8D8F3FC06F8DD7
:1039100078A189A19AA120E03FEF4FE757E40E94E8
:10392000C50318164CF56BA17CA18DA19EA120E0CA
:1039300030E040E251E40E941F02DC01CB01BC01F7
:10394000CD010E944900DC01CB019E8F8D8F0FC0FD
:1039500088EC90E09C8F8B8F8B8D9C8D0197F1F77D
:103960009C8F8B8F8D8D9E8D01979E8F8D8F8D8DD2
:103970009E8D009769F714C06F8D78A189A19AA1D7
:103980000E944900DC01CB019E8F8D8F8D8D9E8D15
:103990009A8F898F898D9A8D0197F1F79A8F898FE8
:1039A0008EA99FA968E30E94C81D8DAB80E090E0BE
:1039B000A6E1B3E48D8B9E8BAF8BB88F6D897E892A
:1039C0008F89988D2BEA3AEA4AE250E40E941F025E
:1039D000DC01CB01898B9A8BAB8BBC8B69897A8993
:1039E0008B899C8920E030E040E85FE30E94250459
:1039F00088231CF481E0888B91C069897A898B893E
:103A00009C8920E030E04FE753E40E94C50318167C
:103A10000CF07BC06D897E898F89988D20E030E025
:103A20004AE754E40E941903DC01CB018C879D878F
:103A3000AE87BF876C857D858E859F8520E030E0D1
:103A40004AEF54E40E941F02DC01CB01888799876A
:103A5000AA87BB87688579858A859B8520E030E0C9
:103A600040E85FE30E94250488232CF481E090E085
:103A70009F838E833FC0688579858A859B8520E0FA
:103A80003FEF4FE757E40E94C50318164CF56C85CD
:103A90007D858E859F8520E030E040E251E40E94E4
:103AA0001F02DC01CB01BC01CD010E944900DC01F9
:103AB000CB019F838E830FC088EC90E09D838C8325
:103AC0008C819D810197F1F79D838C838E819F81ED
:103AD00001979F838E838E819F81009769F724C011
:103AE000688579858A859B850E944900DC01CB0128
:103AF0009F838E838E819F819B838A838A819B8112
:103B00000197F1F79B838A830FC069897A898B8932
:103B10009C890E944900DC01CB01888B88898983BC
:103B200089818A95F1F789838EA99FA968E30E940C
:103B3000C81D8DAB8EA99FA961E00E94C81D8DABE9
:103B40008EA99FA962E00E94C81D8DAB8EA99FA976
:103B500066E00E94C81D8DAB8EA99FA96CE00E94F3
:103B6000C81D8DAB8EA99FA968E20E94C81D8DABB0
:103B70008EA99FA960E80E94C81D8DAB8DA9E7960C
:103B80000FB6F894DEBF0FBECDBFCF91DF91089581
:103B9000DF93CF9300D000D0CDB7DEB79B838A836D
:103BA0006C8319828A819B81009711F4198220C04D
:103BB0008A819B8160E00E94501289838C81282F2A
:103BC00022952F708A819B81622F0E947A2489839B
:103BD0008A819B810E94CC2489838A819B816C810C
:103BE0000E947A2489838A819B810E94CC248983C4
:103BF00089810F900F900F900F90CF91DF910895D2
:103C0000DF93CF9300D000D0CDB7DEB79B838A83FC
:103C10006C8319828A819B81009711F4198220C0DC
:103C20008A819B8161E00E94501289838C81282FB8
:103C300022952F708A819B81622F0E947A2489832A
:103C40008A819B810E94CC2489838A819B816C819B
:103C50000E947A2489838A819B810E94CC24898353
:103C600089810F900F900F900F90CF91DF91089561
:103C7000DF93CF9300D000D000D0CDB7DEB79B83C9
:103C80008A836C834D832E8319828A819B8100975E
:103C900031F08C81853018F48D81853110F01982D6
:103CA0000DC08A819B816C814D810E940A24898389
:103CB0008A819B816E810E94001E8983898126965C
:103CC0000FB6F894DEBF0FBECDBFCF91DF91089540
:103CD000DF93CF9300D000D00F92CDB7DEB79B8398
:103CE0008A837D836C8319828A819B81009721F06E
:103CF0008C819D81009781F4198213C0EC81FD8134
:103D000020818C819D8101969D838C838A819B81FA
:103D1000622F0E94001E8983EC81FD8180818823AF
:103D200069F789810F900F900F900F900F90CF91AE
:103D3000DF910895DF93CF93CDB7DEB727970FB606
:103D4000F894DEBF0FBECDBF9B838A836C834D8307
:103D50003F832E8319828A819B81009751F08E8147
:103D60009F81009731F08C81853018F48D818531E9
:103D700010F019821AC08A819B816C814D810E944A
:103D80000A240EC0EE81FF8120818E819F810196E1
:103D90009F838E838A819B81622F0E94001E89836C
:103DA000EE81FF818081882369F7898127960FB68C
:103DB000F894DEBF0FBECDBFCF91DF910895DF93A2
:103DC000CF93CDB7DEB762970FB6F894DEBF0FBEC4
:103DD000CDBF9E878D874F87588B698B7A8B1982D1
:103DE0008D859E85009711F4198214C08F8598895E
:103DF000A989BA899E012E5F3F4FBC01CD01A9015F
:103E00000E94BB238D859E859E012E5F3F4FB90189
:103E10000E94681E898162960FB6F894DEBF0FBEBD
:103E2000CDBFCF91DF9108950F931F93DF93CF9371
:103E3000CDB7DEB764970FB6F894DEBF0FBECDBF27
:103E40009E878D876F87488B098B1A8B2B8B3C8BBA
:103E500019828D859E85009711F419821AC08D856F
:103E60009E856F8548890E940A2489899A89AB8931
:103E7000BC899E012E5F3F4FBC01CD01A9010E946C
:103E8000BB238D859E859E012E5F3F4FB9010E9409
:103E9000681E898164960FB6F894DEBF0FBECDBF51
:103EA000CF91DF911F910F9108950F93DF93CF93DF
:103EB000CDB7DEB729970FB6F894DEBF0FBECDBFE2
:103EC0009C838B836D834E8338872F8309871A8267
:103ED00019828B819C81009769F08D81853050F427
:103EE0008E81853138F48F819885009719F0898506
:103EF000883010F0198230C08985882F90E00896AC
:103F0000880F991F880F991F880F991F282F8B8161
:103F10009C81622F0E94C81D89831A8212C08A81E7
:103F2000282F30E08F819885FC01E20FF31F20815C
:103F30008B819C81622F0E94001E89838A818F5F02
:103F40008A838A81883058F38B819C816D814E8170
:103F500029850E94381E8983898129960FB6F89495
:103F6000DEBF0FBECDBFCF91DF910F910895DF93DC
:103F7000CF93CDB7DEB7E7970FB6F894DEBF0FBE8D
:103F8000CDBF9FAB8EAB1DAA8EA99FA9009711F440
:103F90001DAADBC10E9419118DAB80E090E0A0EA60
:103FA000B1E489AB9AABABABBCAB69A97AA98BA9DD
:103FB0009CA920E030E04AEF54E40E941F02DC019B
:103FC000CB018DA79EA7AFA7B8AB6DA57EA58FA58A
:103FD00098A920E030E040E85FE30E9425048823B0
:103FE0002CF481E090E09CA78BA73FC06DA57EA537
:103FF0008FA598A920E03FEF4FE757E40E94C50343
:1040000018164CF569A97AA98BA99CA920E030E083
:1040100040E251E40E941F02DC01CB01BC01CD0152
:104020000E944900DC01CB019CA78BA70FC088EC44
:1040300090E09AA789A789A59AA50197F1F79AA771
:1040400089A78BA59CA501979CA78BA78BA59CA551
:10405000009769F714C06DA57EA58FA598A90E9449
:104060004900DC01CB019CA78BA78BA59CA598A739
:104070008FA38FA198A50197F1F798A78FA38EA979
:104080009FA968E30E94FB218DAB80E090E0A0EA4D
:10409000B0E48BA39CA3ADA3BEA36BA17CA18DA117
:1040A0009EA120E030E04AEF54E40E941F02DC01B0
:1040B000CB018F8F98A3A9A3BAA36F8D78A189A1F3
:1040C0009AA120E030E040E85FE30E9425048823C5
:1040D0002CF481E090E09E8F8D8F3FC06F8D78A192
:1040E00089A19AA120E03FEF4FE757E40E94C50362
:1040F00018164CF56BA17CA18DA19EA120E030E0AB
:1041000040E251E40E941F02DC01CB01BC01CD0161
:104110000E944900DC01CB019E8F8D8F0FC088EC7F
:1041200090E09C8F8B8F8B8D9C8D0197F1F79C8FEE
:104130008B8F8D8D9E8D01979E8F8D8F8D8D9E8DFA
:10414000009769F714C06F8D78A189A19AA10E9488
:104150004900DC01CB019E8F8D8F8D8D9E8D9A8FB6
:10416000898F898D9A8D0197F1F79A8F898F8EA902
:104170009FA968E30E94FB218DAB80E090E0A6E15F
:10418000B3E48D8B9E8BAF8BB88F6D897E898F89C1
:10419000988D2BEA3AEA4AE250E40E941F02DC01C1
:1041A000CB01898B9A8BAB8BBC8B69897A898B8984
:1041B0009C8920E030E040E85FE30E9425048823EA
:1041C0001CF481E0888B91C069897A898B899C89EC
:1041D00020E030E04FE753E40E94C50318160CF0CE
:1041E0007BC06D897E898F89988D20E030E04AE719
:1041F00054E40E941903DC01CB018C879D87AE87B4
:10420000BF876C857D858E859F8520E030E04AEFF5
:1042100054E40E941F02DC01CB0188879987AA879A
:10422000BB87688579858A859B8520E030E040E8FA
:104230005FE30E94250488232CF481E090E09F83B3
:104240008E833FC0688579858A859B8520E03FEF16
:104250004FE757E40E94C50318164CF56C857D8521
:104260008E859F8520E030E040E251E40E941F02ED
:10427000DC01CB01BC01CD010E944900DC01CB0176
:104280009F838E830FC088EC90E09D838C838C810C
:104290009D810197F1F79D838C838E819F8101978A
:1042A0009F838E838E819F81009769F724C06885E4
:1042B00079858A859B850E944900DC01CB019F831B
:1042C0008E838E819F819B838A838A819B810197C4
:1042D000F1F79B838A830FC069897A898B899C89CE
:1042E0000E944900DC01CB01888B88898983898100
:1042F0008A95F1F789838EA99FA968E30E94FB2123
:104300008DAB8EA99FA961E00E94FB218DAB8EA988
:104310009FA962E00E94FB218DAB8EA99FA966E058
:104320000E94FB218DAB8EA99FA96CE00E94FB210E
:104330008DAB8EA99FA968E30E94FB218DAB8EA94E
:104340009FA960E80E94FB218DAB8DA9E7960FB66F
:10435000F894DEBF0FBECDBFCF91DF910895DF93FC
:10436000CF9300D000D00F92CDB7DEB79C838B8364
:104370006D831A8219828B819C81009711F41982B6
:1043800031C08B819C8161E00E94501289831A8226
:1043900022C08B819C819C012E5F3F4F8A81882F98
:1043A00090E0A901480F591F8D81282F30E08A81A4
:1043B000882F90E0B90102C0759567958A95E2F75C
:1043C000CB01282F2170CA01622F0E9450128983CD
:1043D0008A818F5F8A838A818830D8F28B819C8121
:1043E0000E94AF2589810F900F900F900F900F9032
:1043F000CF91DF910895DF93CF9300D000D00F923B
:10440000CDB7DEB79C838B836D831A8219828B8133
:104410009C81009711F41A8231C08B819C8160E0ED
:104420000E9450128A83198222C08B819C819C0138
:104430002E5F3F4F8981882F90E0A901480F591FB7
:104440008D81282F30E08981882F90E0B90102C04A
:10445000759567958A95E2F7CB01282F2170CA01DF
:10446000622F0E9450128A8389818F5F898389819C
:104470008830D8F28B819C810E94AF258A810F9071
:104480000F900F900F900F90CF91DF910895DF93D1
:10449000CF9300D000D000D0CDB7DEB79B838A8306
:1044A0006C834D832E8319828A819B81009731F022
:1044B0008C81853018F48D81853110F019820DC002
:1044C0008A819B816C814D810E94922689838A8199
:1044D0009B816E810E94AF218983898126960FB6C8
:1044E000F894DEBF0FBECDBFCF91DF910895DF936B
:1044F000CF9300D000D00F92CDB7DEB79B838A83D5
:104500007D836C8319828A819B81009721F08C8145
:104510009D81009781F4198213C0EC81FD81208177
:104520008C819D8101969D838C838A819B81622FE2
:104530000E94AF218983EC81FD818081882369F706
:1045400089810F900F900F900F900F90CF91DF9176
:104550000895DF93CF93CDB7DEB727970FB6F894C2
:10456000DEBF0FBECDBF9B838A836C834D833F83A9
:104570002E8319828A819B81009751F08E819F81C1
:10458000009731F08C81853018F48D81853110F0E1
:1045900019820FC08A819B816C814D810E94922675
:1045A00089838A819B812E813F81B9010E94772274
:1045B0008983898127960FB6F894DEBF0FBECDBFE1
:1045C000CF91DF910895DF93CF93CDB7DEB7629798
:1045D0000FB6F894DEBF0FBECDBF9E878D874F8785
:1045E000588B698B7A8B19828D859E85009711F483
:1045F000198214C08F859889A989BA899E012E5F76
:104600003F4FBC01CD01A9010E94BB238D859E8532
:104610009E012E5F3F4FB9010E94772289816296E9
:104620000FB6F894DEBF0FBECDBFCF91DF910895D6
:104630000F931F93DF93CF93CDB7DEB764970FB679
:10464000F894DEBF0FBECDBF9E878D876F87488BE6
:10465000098B1A8B2B8B3C8B19828D859E8500973D
:1046600011F419821AC08D859E856F8548890E9434
:10467000922689899A89AB89BC899E012E5F3F4F1A
:10468000BC01CD01A9010E94BB238D859E859E01A1
:104690002E5F3F4FB9010E947722898164960FB641
:1046A000F894DEBF0FBECDBFCF91DF911F910F9168
:1046B00008950F93DF93CF93CDB7DEB729970FB649
:1046C000F894DEBF0FBECDBF9C838B836D834E837A
:1046D00038872F8309871A8219828B819C810097E2
:1046E00069F08D81853050F48E81853138F48F8169
:1046F0009885009719F08985883010F0198230C0AC
:104700008985882F90E00896880F991F880F991F38
:10471000880F991F282F8B819C81622F0E94FB217B
:1047200089831A8212C08A81282F30E08F81988570
:10473000FC01E20FF31F20818B819C81622F0E947C
:10474000AF2189838A818F5F8A838A81883058F379
:104750008B819C816D814E8129850E9447228983AE
:10476000898129960FB6F894DEBF0FBECDBFCF91D9
:10477000DF910F910895DF93CF93CDB7DEB72797E1
:104780000FB6F894DEBF0FBECDBF6A837B838C83E8
:104790009D835F834E8381E089838E819F81009713
:1047A00011F419822DC08E819F8160E070E04BE092
:1047B00050E00E9479298DB79EB708970FB6F894FC
:1047C0009EBF0FBE8DBFEDB7FEB731968E819F8124
:1047D0009183808380E690E0938382838A819B81AA
:1047E000AC81BD8184839583A683B7830E94802991
:1047F0008DB79EB708960FB6F8949EBF0FBE8DBFBB
:10480000898127960FB6F894DEBF0FBECDBFCF913A
:10481000DF910895DF93CF93CDB7DEB727970FB61B
:10482000F894DEBF0FBECDBF9B838A836C834D831C
:1048300081E089838A819B81009731F08C8185306A
:1048400018F48D81853110F019824AC08D81815014
:104850008D838C81282F30E03F832E838E819F8132
:104860008230910501F12E813F812330310534F4EE
:104870008E819F818130910561F032C02E813F8110
:1048800023303105D1F08E819F8184309105F9F07C
:1048900027C08D81282F20588A819B81622F0E94FA
:1048A000C81D89831DC08D81282F20548A819B813A
:1048B000622F0E94C81D898313C08D81282F2C561A
:1048C0008A819B81622F0E94C81D898309C08D81C6
:1048D000282F2C528A819B81622F0E94C81D8983B8
:1048E000898127960FB6F894DEBF0FBECDBFCF915A
:1048F000DF910895DF93CF9300D000D0CDB7DEB71E
:104900009B838A836C8319828A819B81009711F42F
:1049100019823AC08A819B819C012E5F3F4F8C8116
:10492000482F4170C901642F0E94501289838A81E7
:104930009B819C012D5F3F4F8C818695482F417054
:10494000C901642F0E94501289838A819B819C0136
:104950002C5F3F4F8C8186958695482F4170C90109
:10496000642F0E94501289838A819B819C012B5F56
:104970003F4F8C81869586958695482F4170C90159
:10498000642F0E945012898389810F900F900F909D
:104990000F90CF91DF910895DF93CF93CDB7DEB71E
:1049A0006B970FB6F894DEBF0FBECDBF9B8F8A8F7B
:1049B000198E8A8D9B8D019661E00E945012898F1D
:1049C00080E090E0A0EAB0E48D8B9E8BAF8BB88F37
:1049D0006D897E898F89988D2BEA3AEA4AE250E404
:1049E0000E941F02DC01CB01898B9A8BAB8BBC8BA5
:1049F00069897A898B899C8920E030E040E85FE30F
:104A00000E94250488231CF481E0888B91C0698969
:104A10007A898B899C8920E030E04FE753E40E943B
:104A2000C50318160CF07BC06D897E898F89988D1F
:104A300020E030E04AE754E40E941903DC01CB0196
:104A40008C879D87AE87BF876C857D858E859F858A
:104A500020E030E04AEF54E40E941F02DC01CB0169
:104A600088879987AA87BB87688579858A859B858A
:104A700020E030E040E85FE30E94250488232CF426
:104A800081E090E09F838E833FC0688579858A8529
:104A90009B8520E03FEF4FE757E40E94C5031816BF
:104AA0004CF56C857D858E859F8520E030E040E269
:104AB00051E40E941F02DC01CB01BC01CD010E9428
:104AC0004900DC01CB019F838E830FC088EC90E00E
:104AD0009D838C838C819D810197F1F79D838C83CD
:104AE0008E819F8101979F838E838E819F81009706
:104AF00069F724C0688579858A859B850E9449006D
:104B0000DC01CB019F838E838E819F819B838A836F
:104B10008A819B810197F1F79B838A830FC0698902
:104B20007A898B899C890E944900DC01CB01888BA2
:104B30008889898389818A95F1F789838A8D9B8DFC
:104B4000019660E00E945012898F898D6B960FB696
:104B5000F894DEBF0FBECDBFCF91DF910895DF93F4
:104B6000CF93CDB7DEB76B970FB6F894DEBF0FBE0D
:104B7000CDBF9B8F8A8F198E8A8D9B8D019661E0A8
:104B80000E945012898F80E090E0A0EAB0E48D8B03
:104B90009E8BAF8BB88F6D897E898F89988D2BEA1C
:104BA0003AEA4AE250E40E941F02DC01CB01898B01
:104BB0009A8BAB8BBC8B69897A898B899C8920E025
:104BC00030E040E85FE30E94250488231CF481E084
:104BD000888B91C069897A898B899C8920E030E033
:104BE0004FE753E40E94C50318160CF07BC06D8993
:104BF0007E898F89988D20E030E04AE754E40E9456
:104C00001903DC01CB018C879D87AE87BF876C853C
:104C10007D858E859F8520E030E04AEF54E40E9438
:104C20001F02DC01CB0188879987AA87BB8768852B
:104C300079858A859B8520E030E040E85FE30E942B
:104C4000250488232CF481E090E09F838E833FC06D
:104C5000688579858A859B8520E03FEF4FE757E49B
:104C60000E94C50318164CF56C857D858E859F8541
:104C700020E030E040E251E40E941F02DC01CB0161
:104C8000BC01CD010E944900DC01CB019F838E83D2
:104C90000FC088EC90E09D838C838C819D8101976F
:104CA000F1F79D838C838E819F8101979F838E83F3
:104CB0008E819F81009769F724C0688579858A85F0
:104CC0009B850E944900DC01CB019F838E838E81EE
:104CD0009F819B838A838A819B810197F1F79B83C4
:104CE0008A830FC069897A898B899C890E944900CF
:104CF000DC01CB01888B8889898389818A95F1F7CA
:104D000089838A8D9B8D019660E00E945012898F65
:104D1000898D6B960FB6F894DEBF0FBECDBFCF91D5
:104D2000DF910895DF93CF93CDB7DEB727970FB606
:104D3000F894DEBF0FBECDBF9B838A836C834D8307
:104D400081E089838A819B81009731F08C81853055
:104D500018F48D81853110F019824AC08D818150FF
:104D60008D838C81282F30E03F832E838E819F811D
:104D70008230910501F12E813F812330310534F4D9
:104D80008E819F818130910561F032C02E813F81FB
:104D900023303105D1F08E819F8184309105F9F067
:104DA00027C08D81282F20588A819B81622F0E94E5
:104DB000FB2189831DC08D81282F20548A819B81EE
:104DC000622F0E94FB21898313C08D81282F2C56CE
:104DD0008A819B81622F0E94FB21898309C08D817A
:104DE000282F2C528A819B81622F0E94FB2189836C
:104DF000898127960FB6F894DEBF0FBECDBFCF9145
:104E0000DF910895DF93CF930F92CDB7DEB781E0A6
:104E100089830E94191189810F90CF91DF910895A4
:104E2000DF93CF93CDB7DEB729970FB6F894DEBFE7
:104E30000FBECDBF9F838E83798768871C821B82BC
:104E40001A8219828E819F81009721F08885998529
:104E5000009711F41C8257C01B8251C019820EC0EA
:104E60002E813F818981882F90E0820F931F61E01E
:104E70000E9450128C8389818F5F8983898184305D
:104E800078F32E813F818B81882F90E0820F931FD2
:104E900060E00E9450128C831A822BC08E819F8109
:104EA0009C012C5F3F4F8A81882F90E0820F931FD7
:104EB0009E012B5F3F4FB9010E94F1128C838D81BF
:104EC0008823A1F48B81482F50E08A81282F30E07D
:104ED000CA01880F991F880F991F820F931FFC0129
:104EE000E053FF4F8081E885F98580838A818F5F59
:104EF0008A838A81843090F28B818F5F8B838B8150
:104F0000843008F4ABCF8C8129960FB6F894DEBFBD
:104F10000FBECDBFCF91DF910895DF93CF93CDB773
:104F2000DEB70E9419110E94AD1ACF91DF9108954A
:104F3000DF93CF930F92CDB7DEB781E089830E94D4
:104F4000191189810F90CF91DF910895DF93CF934D
:104F500000D00F92CDB7DEB79B838A831982EA8196
:104F6000FB8180818370982F93708091E0008C7F0B
:104F7000892B8093E000EA81FB818081869586956C
:104F800087708770982F990F990F8091E000837E2A
:104F9000892B8093E000EA81FB8181818370982FC7
:104FA00093708091E1008C7F892B8093E100EA81EE
:104FB000FB8181818695869587708770982F990FE0
:104FC000990F8091E100837E892B8093E1008A8193
:104FD0009B81009711F419820AC080EE90E061E095
:104FE0000E94501281EE90E060E00E945012898190
:104FF0000F900F900F90CF91DF910895DF93CF9393
:1050000000D00F92CDB7DEB79B838A831982EA81E5
:10501000FB8180818370982F93708091E0008C7F5A
:10502000892B8093E000EA81FB81808186958695BB
:1050300087708770982F990F990F8091E000837E79
:10504000892B8093E000EA81FB8181818370982F16
:1050500093708091E1008C7F892B8093E100EA813D
:10506000FB8181818695869587708770982F990F2F
:10507000990F8091E100837E892B8093E1008A81E2
:105080009B81009711F419820AC080EE90E060E0E5
:105090000E94501281EE90E061E00E9450128981DE
:1050A0000F900F900F90CF91DF910895DF93CF93E2
:1050B00000D00F92CDB7DEB79B838A831982EA8135
:1050C000FB8180818370982F93708091E0008C7FAA
:1050D000892B8093E000EA81FB818081869586950B
:1050E00087708770982F990F990F8091E000837EC9
:1050F000892B8093E000EA81FB8181818370982F66
:1051000093708091E1008C7F892B8093E100EA818C
:10511000FB8181818695869587708770982F990F7E
:10512000990F8091E100837E892B8093E1008A8131
:105130009B81009711F419820AC080EE90E061E033
:105140000E94501281EE90E061E00E94501289812D
:105150000F900F900F90CF91DF910895DF93CF9331
:105160000F92CDB7DEB781E089830E941911898142
:105170000F90CF91DF910895DF93CF9300D000D0AF
:1051800000D0CDB7DEB79C838B837E836D8319827D
:105190001A828B819C81009721F08D819E810097DE
:1051A00011F4198231C08B819C819E012E5F3F4F8B
:1051B000B9010E94F112EB81FC818281882379F48C
:1051C0008A81882321F4ED81FE8110821BC08A81AF
:1051D0008130C1F4ED81FE8181E0808313C0EB81D9
:1051E000FC818281813071F48A81882329F4ED81E8
:1051F000FE8181E0808306C08A81813019F4ED81CF
:10520000FE81108281E08983898126960FB6F89409
:10521000DEBF0FBECDBFCF91DF910895DF93CF9357
:105220000F92CDB7DEB7E1E3F0E08081E1E3F0E09B
:105230008FEF808389EC90E00E944F0689EC90E02C
:1052400061E670E00E943309F9CFDF93CF93CDB7C9
:10525000DEB70E948D27CF91DF910895DF93CF9322
:10526000CDB7DEB781E00E948F14CF91DF91089512
:10527000DF93CF93CDB7DEB780E00E948F14CF913C
:10528000DF9108952F923F924F925F926F927F929B
:105290008F929F92AF92BF92CF92DF92EF92FF9246
:1052A0000F931F93CF93DF93CDB7DEB7CA1BDB0BF2
:1052B0000FB6F894DEBF0FBECDBF09942A88398897
:1052C00048885F846E847D848C849B84AA84B9849E
:1052D000C884DF80EE80FD800C811B81AA81B981AA
:1052E000CE0FD11D0FB6F894DEBF0FBECDBFED01BE
:1052F0000895DC0101C06D9341505040E0F70895DE
:10530000AEE0B0E0E6E8F9E20C9450290D891E8980
:1053100086E08C831A8309838FEF9FE79E838D83BA
:105320009E01275E3F4FCE0101966F89788DA901BE
:105330000E94A4292F813885020F131FF8011082C3
:105340002E96E4E00C946C29ABE0B0E0EAEAF9E2D6
:105350000C9442293C012B015A01FC011782168250
:10536000838181FD03C06FEF7FEFC6C19AE0892E74
:105370001E010894211C311CF3012381F20123FD3D
:10538000859123FF81912F01882309F4B2C18532D1
:1053900039F423FD859123FF81912F01853229F472
:1053A00090E0B3010E94972BE7CF982FFF24EE24C3
:1053B0009924FFE1FF15D0F09B3269F09C3228F46C
:1053C000903259F0933291F40EC09D3249F09033EF
:1053D00069F441E024C052E0F52A84E0F82A28C0AC
:1053E00098E0F92A25C0E0E1FE2A22C0F7FC29C096
:1053F000892F80538A3070F4F6FE05C0989C902C5B
:105400001124980E15C0E89CE02C1124E80EF0E25F
:10541000FF2A0EC09E3229F4F6FC6BC140E4F42A48
:1054200007C09C3619F450E8F52A02C0983649F4B2
:10543000F20123FD959123FF91912F01992309F00A
:10544000B8CF892F8554833018F08052833038F4D8
:1054500044E050E0A40EB51E5FE359830FC09336BD
:1054600031F0933779F0933509F056C020C0F5013B
:105470008081898342E050E0A40EB51E610101E005
:1054800010E012C0F501C080D180F6FC03C06FEFC0
:105490007FEF02C0692D70E042E050E0A40EB51E1F
:1054A000C6010E948C2B8C015FE7F52214C0F50128
:1054B000C080D180F6FC03C06FEF7FEF02C0692D82
:1054C00070E042E050E0A40EB51EC6010E94812BA0
:1054D0008C0150E8F52AF3FE07C01AC080E290E084
:1054E000B3010E94972BEA948E2D90E008171907BC
:1054F000A8F30EC0F601F7FC8591F7FE81916F01CC
:1055000090E0B3010E94972BE110EA940150104003
:105510000115110579F7EAC0943611F0993669F54D
:10552000F7FE08C0F501208131814281538184E07A
:1055300090E00AC0F501808191819C01442737FDEC
:105540004095542F82E090E0A80EB91E9FE6F92204
:1055500057FF09C050954095309521953F4F4F4FCB
:105560005F4FE0E8FE2ACA01B901A1012AE030E05C
:105570000E94C32BD82ED21840C0953729F41F2D76
:105580001F7E2AE030E01DC01F2D197F9F3661F07D
:10559000903720F4983509F0ACC00FC0903739F03F
:1055A000983709F0A6C004C028E030E00AC01061B6
:1055B00014FD146020E130E004C014FD166020E109
:1055C00032E017FF08C0F50160817181828193810B
:1055D00044E050E008C0F50180819181BC0180E089
:1055E00090E042E050E0A40EB51EA1010E94C32B42
:1055F000D82ED2188FE7F82EF122F6FE0BC05EEF00
:10560000F522D91438F4F4FE07C0F2FC05C08FEE81
:10561000F82202C01D2D01C0192DF4FE0DC0FE019F
:10562000ED0DF11D8081803319F499EEF92208C047
:105630001F5FF2FE05C003C08F2D867809F01F5F43
:105640000F2DF3FC14C0F0FE0FC01E1510F09D2CA2
:105650000BC09D2C9E0C911A1E2D06C080E290E07E
:10566000B3010E94972B1F5F1E15C0F304C01E15C7
:1056700010F4E11A01C0EE2404FF0FC080E390E0B3
:10568000B3010E94972B02FF1DC001FD03C088E7F4
:1056900090E00EC088E590E00BC0802F867891F0F6
:1056A00001FF02C08BE201C080E2F7FC8DE290E0D6
:1056B000B3010E94972B06C080E390E0B3010E94E3
:1056C000972B9A94D914C0F3DA94F101ED0DF11DE2
:1056D000808190E0B3010E94972BDD20A9F706C0DE
:1056E00080E290E0B3010E94972BEA94EE20C1F78C
:1056F00043CEF30166817781CB012B96E2E10C94D6
:105700005E29FC010590615070400110D8F780952A
:1057100090958E0F9F1F0895FC016150704001907D
:105720000110D8F7809590958E0F9F1F08950F93C5
:105730001F93CF93DF938C01EB018B8181FF1BC003
:1057400082FF0DC02E813F818C819D8128173907F2
:1057500064F4E881F9810193F983E88306C0E88560
:10576000F985802F0995892B31F48E819F810196CF
:105770009F838E8302C00FEF1FEFC801DF91CF918F
:105780001F910F910895FA01AA27283051F1203175
:1057900081F1E8946F936E7F6E5F7F4F8F4F9F4FC5
:1057A000AF4FB1E03ED0B4E03CD0670F781F891F07
:1057B0009A1FA11D680F791F8A1F911DA11D6A0FD5
:1057C000711D811D911DA11D20D009F468943F9188
:1057D0002AE0269F11243019305D3193DEF6CF0187
:1057E0000895462F4770405D4193B3E00FD0C9F74D
:1057F000F6CF462F4F70405D4A3318F0495D31FDBA
:105800004052419302D0A9F7EACFB4E0A69597950C
:10581000879577956795BA95C9F7009761057105E2
:1058200008959B01AC010A2E06945795479537952C
:105830002795BA95C9F7620F731F841F951FA01D86
:065840000895F894FFCF6B
:10584600256C750000000000000000003A003700DB
:10585600340031003B003800350032003900360094
:10586600330030001A13181F010001020105090D4B
:105876000004080C0003070B0F13171B1F12160357
:10588600070B0F13171B1F1A1E02060A0E1F1111F4
:10589600111F1F1F0000000000010600000F2E2927
:1058A60001033829000202006400670003000001BA
:1058B6003738392F3435362A3132332D23303D2BC4
:00000001FF
