:100000000C942A000C9447000C9447000C94470071
:100010000C9447000C9447000C9447000C94470044
:100020000C9447000C9447000C9447000C94470034
:100030000C9447000C9447000C9447000C94470024
:100040000C9447000C9447000C9447000C94470014
:100050000C94470011241FBECFE5D8E0DEBFCDBF12
:1000600010E0A0E6B0E0ECECF7E002C005900D92E5
:10007000AA38B107D9F710E0AAE8B0E001C01D9294
:10008000AD38B107E1F70E94BC030C94E4030C9473
:100090000000E0916000F09161009FEF9083E0919B
:1000A0006200F09163009083E0916400F09165003C
:1000B0009083E0916600F09167008FE78083E09184
:1000C0006800F09169001082E0916A00F0916B0085
:1000D0001082E0916C00F0916D001082E0916E0052
:1000E000F0916F00908381E00895FC010097B1F1D9
:1000F0008081982F9370E92FF0E086958695482FA0
:10010000477082958170282F30E02115310591F0DC
:100110002130310519F5EE0FFF1FE05AFF4F019016
:10012000F081E02D808102C0220F331F4A95E2F753
:10013000822B11C0EE0FFF1FE05AFF4F0190F0819C
:10014000E02D208181E090E002C0880F991F4A9540
:10015000E2F780958223808381E0089580E008950E
:10016000FC01DB010097E1F061157105C9F0208108
:10017000E22FE370F0E0EE0FFF1FE05AFF4F019017
:10018000F081E02D808190E026952695277002C0B1
:10019000959587952A95E2F781708C9381E0089573
:1001A00080E00895FC01009799F19081892F837078
:1001B000E82FF0E0392F3695369537706623A1F099
:1001C000613031F5EE0FFF1FE859FF4F0190F081CC
:1001D000E02D208181E090E002C0880F991F3A95C0
:1001E000E2F7282B208312C0EE0FFF1FE859FF4FC4
:1001F0000190F081E02D208181E090E002C0880F25
:10020000991F3A95E2F780958223808381E00895D3
:1002100080E00895FC01DB010097E1F061157105B4
:10022000C9F02081E22FE370F0E0EE0FFF1FE059EC
:10023000FF4F0190F081E02D808190E0269526957A
:10024000277002C0959587952A95E2F781708C9367
:1002500081E0089580E00895FC01009711F480E0AA
:1002600008952081E22FE370F0E0EE0FFF1FE859C0
:10027000FF4F0190F081E02D308126952695277063
:1002800081E090E002C0880F991F2A95E2F7382795
:10029000308381E008956230F8F48430E8F4662316
:1002A00019F06130B9F40BC0E82FF0E0EE0FFF1F3A
:1002B000E05AFF4F0190F081E02D10820BC0E82F33
:1002C000F0E0EE0FFF1FE05AFF4F0190F081E02DAC
:1002D0008FEF808381E0089580E00895DB01843012
:1002E00010F080E00895E82FF0E0EE0FFF1FE05AD5
:1002F000FF4F0190F081E02D8081808380818C937D
:1003000081E008956230F0F48430E0F4662371F007
:100310006130B1F4E82FF0E0EE0FFF1FE859FF4F16
:100320000190F081E02D8FEF80830AC0E82FF0E08C
:10033000EE0FFF1FE859FF4F0190F081E02D108272
:1003400081E0089580E00895DB01843010F080E0C2
:100350000895E82FF0E0EE0FFF1FE059FF4F0190E6
:10036000F081E02D8081808380818C9381E00895ED
:10037000843010F080E00895E82FF0E0EE0FFF1FCA
:10038000E859FF4F0190F081E02D808180958083B6
:1003900081E00895DF93CF930F92CDB7DEB7FC01D4
:1003A0008081282F2370982F969596959770829527
:1003B00086958170EF2B11F480E010C081708295DA
:1003C000880F807E9770990F990F892B822B8983D4
:1003D000CE01019660E00E94D20081E00F90CF91A3
:1003E000DF910895DF93CF930F92CDB7DEB7FC0175
:1003F0008081282F2370982F9695969597708295D7
:1004000086958170EF2B11F480E010C08170829589
:10041000880F807E9770990F990F892B822B898383
:10042000CE01019661E00E94D20081E00F90CF9151
:10043000DF9108950E94490081E00895DF93CF93F2
:100440000F92CDB7DEB7FC018081482F4370382F63
:10045000369536953770282F229526952170982F3E
:100460009295969596959170EF2B11F480E019C0B6
:1004700091709295990F990F907C89818F79217055
:100480002295220F207E892B822B3770330F330F5A
:10049000807E832B842B8983CE0101960E942C01C0
:1004A00081E00F90CF91DF910895DF93CF930F926A
:1004B000CDB7DEB7FC018081482F4370382F3695C9
:1004C00036953770282F229526952170982F929572
:1004D000969596959170EF2B11F480E01AC091706B
:1004E0009295990F990F907C89818F79217022952F
:1004F000220F207E892B822B3770330F330F807EA3
:10050000832B842B8983CE01019660E00E94D20068
:1005100081E00F90CF91DF910895DF93CF930F92F9
:10052000CDB7DEB7FC018081482F4370382F369558
:1005300036953770282F229526952170982F929501
:10054000969596959170EF2B11F480E01AC09170FA
:100550009295990F990F907C89818F7921702295BE
:10056000220F207E892B822B3770330F330F807E32
:10057000832B842B8983CE01019661E00E94D200F7
:1005800081E00F90CF91DF9108950E94490081E0B2
:10059000089580E008950E94490081E00895FC01DB
:1005A0009081937080918A008C7F892B80938A0040
:1005B00090819C71837E892B80938A0091819370B6
:1005C00080918B008C7F892B80938B0091819C7113
:1005D000837E892B80938B00EF2B51F08AE890E08B
:1005E00061E00E94D2008BE890E061E00E94D200BE
:1005F00080E00895FC019081937080918A008C7F47
:10060000892B80938A0090819C71837E892B8093B3
:100610008A009181937080918B008C7F892B8093CD
:100620008B0091819C71837E892B80938B00EF2BB3
:1006300051F08AE890E060E00E94D2008BE890E000
:1006400061E00E94D20080E00895FC0190819370E7
:1006500080918A008C7F892B80938A0090819C7185
:10066000837E892B80938A009181937080918B0087
:100670008C7F892B80938B0091819C71837E892B49
:1006800080938B00EF2B51F08AE890E061E00E94AC
:10069000D2008BE890E060E00E94D20080E00895F4
:1006A0000E94490081E00895EF92FF920F931F93FB
:1006B000DF93CF930F92CDB7DEB78C017B0100970C
:1006C00001F161157105E9F01982BE016F5F7F4F7D
:1006D0000E940A01F8018281882331F489818823EC
:1006E00069F0813081F405C0813069F499819923E2
:1006F00019F4F701808308C0913029F4F7011082C2
:1007000002C080E001C081E00F90CF91DF911F9186
:100710000F91FF90EF9008950E94490081E00895A5
:100720001F93CF93DF93EC01162F0097E1F06A300F
:10073000D0F461700E94D200612F66956170CE0185
:1007400001960E94D20016951695612F6170CE0118
:1007500002960E94D20016951170CE010396612F69
:100760000E94D20001C080E0DF91CF911F910895D7
:100770000E94490081E00895CF93DF930E94B8035F
:100780000E945003C8ECD0E084E890E063E00E944F
:10079000900380E890E00E94250382E890E00E94A8
:1007A000FA0288EE93E0FE013197F1F70197D9F74D
:1007B00080E890E00E94CF0288EE93E0FE0131973E
:0C07C000F1F70197D9F7E0CFF894FFCFD4
:1007CC003A003700340031003B003800350032006D
:1007DC0039003600330030001C13181F01000102D1
:0A07EC000105090D0004080C0000CF
:00000001FF
